:0308FE00010801ED
:0E08E200EF1FAC0670011E4C60030080F32275
:1008C300D29EC29FD29C438780438E40538EFE7537
:0F08D3008920758DF3758BF3D28ED2AFD2AC2204
:0E08F0001208C37509FF750B00750C0180FE20
:0300230002088C44
:10088C00C0E0C0D0309826859909C29CC292000065
:10089C0000000000D3E5099408748094804008742B
:1008AC00F82509F50980E7D292C298D29C309902BA
:0708BC00C299D0D0D0E03258
:03000000020800F3
:0C080000787FE4F6D8FD75810C020847F3
:10080C000208F0E493A3F8E493A34003F68001F20A
:10081C0008DFF48029E493A3F85407240CC8C333ED
:10082C00C4540F4420C8834004F456800146F6DFBC
:10083C00E4800B01020408102040809008FEE47E46
:10084C00019360BCA3FF543F30E509541FFEE493B1
:10085C00A360010ECF54C025E060A840B8E493A378
:10086C00FAE493A3F8E493A3C8C582C8CAC583CAA3
:10087C00F0A3C8C582C8CAC583CADFE9DEE780BE5B
:0109010000F5
:00000001FF
