:0A02CC00C0F9A4B0999282F8809066
:100158002040220000000000000000000000000015
:100168000000000000000000000000000000000087
:100178000000000000000000000000000000000077
:100188000000000000000000000000000000000067
:0301980000000064
:02008F008F0CD4
:10009100E4F50DC3E50D9403748094805073E50C71
:1000A10075F00A84E5F0B40A0050559000B3F828C1
:1000B10028730200D10200D60200DB0200E0020038
:1000C100E50200EA0200EF0200F40200F90200FE7C
:1000D100759930802B7599318026759932802175FB
:1000E1009933801C759934801775993580127599EB
:1000F10036800D759937800875993880037599395F
:10010100E50C75F00A84F50C7FE8120258050D80A4
:01011100826B
:0101120022CA
:100217001202757D407F901202387F901201F575AA
:1002270028008F2912008F859921852199C29880EE
:01023700E2E4
:10025800EFD394007480948040127E7DEED3940096
:0C0268007480948040031E80F31F80E42B
:010274002267
:1001C9008F088D098B0A1202A5AF081201132000AE
:1001D90002C322AF09120113200002C322AF0A127F
:0C01E9000113200002C3221202BBD3222B
:100238008F0C8D0D1202A5AF0C120113200002C302
:1002480022AF0D120113200002C3221202BBD322D7
:0201F5008F0C6D
:1001F7001202A5E50C04FF1201132000037F002261
:0F02070012019C8F0DD20112028D1202BBAF0D9E
:0102160022C5
:10027500D2AFD2ACD2AB758920E4F58775985075AD
:080285008DFD758BFDD28E2268
:1002A500D2A400D2A30000000000C2A400000000F8
:0602B50000C2A3000022BC
:1002BB00C2A400D2A30000000000D2A400000000E2
:0102CB002210
:10011300E4FEEEC39408748094805020A806EF0890
:100123008002C333D8FC30E704D2A48002C2A40007
:10013300D2A30000000000C2A30E80D60000D2A408
:100143000000D2A300000030A404C2008002D20049
:04015300C2A3000043
:010157002285
:10019C00E4FFD2A4FEEEC39408748094805019003E
:1001AC00C2A30000000000D2A30000EF25E0FF3046
:0C01BC00A4010F00000E80DDC2A30000B3
:0101C8002214
:10028D00200104C2A48002D2A4000000D2A3000069
:08029D00000000C2A3000022D2
:03000000020003F8
:0C000300787FE4F6D8FD75816102004AA8
:10000F00020217E493A3F8E493A34003F68001F2EE
:10001F0008DFF48029E493A3F85407240CC8C333F2
:10002F00C4540F4420C8834004F456800146F6DFC1
:10003F00E4800B0102040810204080900158E47EF8
:10004F00019360BCA3FF543F30E509541FFEE493B6
:10005F00A360010ECF54C025E060A840B8E493A37D
:10006F00FAE493A3F8E493A3C8C582C8CAC583CAA8
:10007F00F0A3C8C582C8CAC583CADFE9DEE780BE60
:01019B000063
:00000001FF
