:10020400C2A5D2A68F8000D2A71202BB1202BB12D3
:0C02140002BBC2A77580FFD2A6D2A522B3
:10022000C2A5C2A68F8000D2A71202BB1202BB12C7
:0C02300002BBC2A77580FFD2A6D2A52297
:1001E500430780C2A5C2A68F8000D2A71202BB1208
:0F01F50002BB1202BBC2A77580FFD2A6D2A52201
:10025800C2A77F381202207F061202207F0E1202E8
:06026800207F01020220CC
:0502BB00007F2FDFFEB3
:0102C000221B
:10018500000A1C0F0A0F0A000007111A1F0A0600B1
:100195000000161F16101F00000E0E0E1B0A1A0077
:1001A500000000000000000000000000000000004A
:1001B500000000000000000000000000000000003A
:10023C00014D00014C50014B00104E48656C6C6F29
:0B024C0020576F726C6421000000005E
:0802B2007F047EE1DEFEDFFCAB
:0102BA002221
:10029400758901758CFF758A9CD28CC2AFD2A92254
:10026E00E54C654D600CE54DD3954C4003154D2284
:03027E00054D2209
:0E02A400EF1FAC0670011E4C60030080F322B9
:1001C50078097C007D007BFF7A0179857E007F4080
:1001D5001200D3E4FF1201E51202B2E4FF020204A9
:100281001202941202581202B27F0C1202201201C1
:03029100C580FE27
:030000000200F902
:0C00F900787FE4F6D8FD75815D020140BF
:10000300E709F608DFFA8046E709F208DFFA803EDF
:1000130088828C83E709F0A3DFFA8032E309F608CC
:10002300DFFA8078E309F208DFFA807088828C8334
:10003300E309F0A3DFFA806489828A83E0A3F608E8
:10004300DFFA805889828A83E0A3F208DFFA804CC2
:1000530080D280FA80C680D4806980F28033801099
:1000630080A680EA809A80A880DA80E280CA803302
:1000730089828A83ECFAE493A3C8C582C8CCC5837A
:10008300CCF0A3C8C582C8CCC583CCDFE9DEE7804A
:100093000D89828A83E493A3F608DFF9ECFAA9F0C9
:1000A300EDFB2289828A83ECFAE0A3C8C582C8CC1F
:1000B300C583CCF0A3C8C582C8CCC583CCDFEADE38
:1000C300E880DB89828A83E493A3F208DFF980CC9A
:1000D30088F0EF60010E4E60C388F0ED2402B40493
:1000E3000050B9F582EB2402B4040050AF2323453A
:0600F3008223900053730C
:10010500020281E493A3F8E493A34003F68001F28D
:1001150008DFF48029E493A3F85407240CC8C333FB
:10012500C4540F4420C8834004F456800146F6DFCA
:10013500E4800B010204081020408090023CE47E1C
:10014500019360BCA3FF543F30E509541FFEE493BF
:10015500A360010ECF54C025E060A840B8E493A386
:10016500FAE493A3F8E493A3C8C582C8CAC583CAB1
:10017500F0A3C8C582C8CAC583CADFE9DEE780BE69
:0102570000A6
:00000001FF
