:1005D2003F065B4F666D7D077F6F777C395E797171
:0805E200000000000000000011
:1005EA0012053AEE3395E08F0B8E0AF509F508FDF0
:0705FA00AC081203A780E921
:0803A7008F0F8E0E8D0D8C0CE2
:1003AF0078117C007D007BFF7A0579E27E007F0863
:1003BF00120298AF0FAE0EAD0DAC0CEC335017759B
:1003CF0014401202BEEF2401F50FE43EF50EE43D9A
:1003DF00F50DE43CF50CE47B0AFAF9F8AF0FAE0E1D
:1003EF00AD0DAC0C1204F674D22BF58274053AF5F0
:1003FF0083E493F511E47B0AFAF9F8AF0FAE0EAD73
:10040F000DAC0C1204F6E47B0AFAF9F81204F67438
:10041F00D22BF58274053AF583E493F512431280DB
:10042F00E47B64FAF9F8AF0FAE0EAD0DAC0C12040D
:10043F00F6E47B0AFAF9F81204F674D22BF58274FB
:10044F00053AF583E493F513E4F510C3E51094082A
:10045F007480948040030204F5E5105407B408003B
:10046F005075900478F828287302049002049B02B8
:10047F0004A60204B10204BC0204C70204D202049F
:10048F00DDC291C292C293851880804BC291C292F5
:10049F00D2938517808040C291D292C293851680E5
:1004AF008035C291D292D293851580802AD291C283
:1004BF0092C293851480801FD291C292D2938513DA
:1004CF00808014D291D292C2938512808009D291EA
:1004DF00D292D2938511807F647E00120601E4F5DB
:0604EF0080051002045A12
:0104F50022E4
:0E060100EF1FAC0670011E4C60030080F32258
:080625007F027E0EDEFEDFFC09
:01062D0022AA
:04062E007F14DFFE58
:0106320022A5
:0A061B00C290120625D290020625B7
:1005AD00E4FEEEC39408748094805018C29000EF5E
:1005BD001392907D06AC051DEC70FAD290EFC3132B
:0405CD00FF0E80DEBF
:0105D1002207
:10057800E4FEFDEDC39408748094805025C2900079
:10058800D290000000000000000000A290E433FCBC
:10059800C43333335480FFEEC3134FFE12062E0DBF
:0405A80080D1AF0649
:0105AC00222C
:10053A00E4FFFE12061B7FCC1205AD7F441205AD07
:10054A0012061B7FCC1205AD7FBE1205AD120578CF
:10055A00AB07120578EFFEEBFFAD07AC06EC120114
:0E056A000EE4FBFA7920783F120003020147ED
:10000300EC4D6011E8497017ED33EC3304600DE4F7
:10001300FCFFFEFD22E933E8330470F80201B3125A
:10002300017E58046009E4CC24815006285009025B
:1000330001BD2840030201BAC0E0EB4A7044B98015
:1000430006D0E0FB0201A9EF4E701CBD8008EBFF58
:10005300EAFEE9FD80EBE98DF0A4FEE5F00200EC99
:10006300E9CDF9EAFEEBFFEF89F0A4FCE5F0CE89D8
:10007300F0A42EFFE435F0CD89F0A42DFEE435F095
:100083008067EF4E7005BD80D780C3EF8BF0A4ACC3
:10009300F0EE8BF0A42CFCE435F0F8EF8AF0A42CFE
:1000A300E5F038FCE433CB8DF0A42CFCE5F03BF811
:1000B300EE8AF0A42CFCE5F038F8E433CF89F0A401
:1000C3002CFCE5F038CF3400CE89F0A42FFFE5F007
:1000D3003EFEE433C98DF0A42EFEE5F039CD8AF05F
:1000E300A42FFFE5F03EFEE43DFD33D0E0FB5007D7
:1000F3000BBB000F0201BDEC2CFCEF33FFEE33FE14
:06010300ED33FD02019541
:1001090075F020800E75F010800575F0087D007E71
:10011900007F003392D530D5031202CBEC33401067
:10012900EF33FFEE33FEED33FDEC33FCD5F0ED227A
:0E013900E5F0247EA2D513CC92E7CDCEFF22B6
:10014700EDD2E7CD33EC3392D524814006E4FFFEB0
:10015700FDFC22FCE4CFCECDCC24E0501174FF800F
:10016700EDC3CC13CCCD13CDCE13CECF13CF0470AC
:07017700F030D5DE0202CBDF
:10017E00E9D2E7C933E833F892D5EDD2E7CD33ECC7
:07018E0033FC5002B2D52240
:10019500EC30E7100FBF000C0EBE00080DBD0004CB
:1001A5000BEB6014A2D5EB13FCED92E7FD2274FF77
:1001B500FCFDFEFF22E480F8A2D574FF13FC7D80D0
:0301C500E480EFE4
:0300000002060FE6
:0C060F00787FE4F6D8FD7581180205EA3A
:1001C800E709F608DFFA8046E709F208DFFA803E19
:1001D80088828C83E709F0A3DFFA8032E309F60806
:1001E800DFFA8078E309F208DFFA807088828C836E
:1001F800E309F0A3DFFA806489828A83E0A3F60822
:10020800DFFA805889828A83E0A3F208DFFA804CFB
:1002180080D280FA80C680D4806980F280338010D2
:1002280080A680EA809A80A880DA80E280CA80333B
:1002380089828A83ECFAE493A3C8C582C8CCC583B3
:10024800CCF0A3C8C582C8CCC583CCDFE9DEE78083
:100258000D89828A83E493A3F608DFF9ECFAA9F002
:10026800EDFB2289828A83ECFAE0A3C8C582C8CC58
:10027800C583CCF0A3C8C582C8CCC583CCDFEADE71
:10028800E880DB89828A83E493A3F208DFF980CCD3
:1002980088F0EF60010E4E60C388F0ED2402B404CC
:1002A8000050B9F582EB2402B4040050AF23234573
:0602B8008223900218737E
:1004F600C2D5E830E70FB2D5E4C39BFBE49AFAE431
:1005060099F9E498F8EC30E717B2D512052C1203E6
:1005160015E4C39BFBE49AFAE499F9E498F880039E
:1005260012031530D50DE4C39FFFE49EFEE49DFD46
:04053600E49CFC2223
:0D02BE00CFF4CFCEF4CECDF4CDCCF4CC22D5
:0E02CB00C3E49FFFE49EFEE49DFDE49CFC2244
:1002D90075F008758200EF2FFFEE33FECD33CDCCDC
:1002E90033CCC58233C5829BED9AEC99E58298405F
:1002F9000CF582EE9BFEED9AFDEC99FC0FD5F0D63C
:10030900E4CEFBE4CDFAE4CCF9A88222B800C1B965
:100319000059BA002DEC8BF084CFCECDFCE5F0CBA3
:10032900F97818EF2FFFEE33FEED33FDEC33FCEBDC
:1003390033FB10D703994004EB99FB0FD8E5E4F997
:10034900FA227818EF2FFFEE33FEED33FDEC33FC84
:10035900C933C910D7059BE99A4007EC9BFCE99A78
:10036900F90FD8E0E4C9FAE4CCFB2275F010EF2FBD
:10037900FFEE33FEED33FDCC33CCC833C810D707BD
:100389009BEC9AE899400AED9BFDEC9AFCE899F8F8
:0E0399000FD5F0DAE4CDFBE4CCFAE4C8F9228B
:00000001FF
