:100255003F065B4F666D7D077F6F777C395E7971F1
:010265000098
:10023E000808000000000000000002140055021221
:06024E0000000210000098
:0B026600EF1FAC0670011E4C70F6226A
:1001F600E4FDEDC394087480948050228D20A20003
:100206009290A2019291A202929274082DF8E6F5BC
:0E021600807F647E00120266E4F5800D80D4C5
:0102240022B7
:10022500758951758C3C758AB0E4F58DF58BD2AF27
:09023500D2A9D2ABD28CD28E22E8
:10001E00AE14AF157C007D0A1201A174552DF58228
:10002E0074023CF583E493F50FAE14AF157C007D9E
:10003E000A1201A17C007D0A1201A174552DF582D0
:10004E0074023CF583E493F50EAE14AF157C007D7F
:10005E00641201A17C007D0A1201A174552DF58256
:10006E0074023CF583E493F50DAE14AF157C037D5D
:10007E00E81201A17C007D0A1201A174552DF582B2
:10008E0074023CF583E493F50CAE14AF157C277D1A
:10009E00101201A17C007D0A1201A174552DF5826A
:0A00AE0074023CF583E493F50B2285
:0D000E001202251201F612001EB2B380F698
:03000B00020144AB
:10014400C0E0C0D075D000C007758C3C758AB0C3C0
:10015400E5139414E5129400500A0513E513703660
:1001640005128032751200751300AF8DEF751500FE
:10017400F514AF8BEF2515F515E43514F514E511D9
:100184002515F515E5103514F514751000751100D5
:0D019400758D00758B00D007D0D0D0E03203
:03001B00020003DD
:0100030032CA
:030000000200B843
:0C00B800787FE4F6D8FD7581200200FF7F
:1001A100BC000BBE0029EF8DF084FFADF022E4CC42
:1001B100F875F008EF2FFFEE33FEEC33FCEE9DEC0B
:1001C100984005FCEE9DFE0FD5F0E9E4CEFD22ED51
:1001D100F8F5F0EE8420D21CFEADF075F008EF2F9B
:1001E100FFED33FD4007985006D5F0F222C398FD8C
:0501F1000FD5F0EA2229
:1000C40002000EE493A3F8E493A34003F68001F244
:1000D40008DFF48029E493A3F85407240CC8C3333D
:1000E400C4540F4420C8834004F456800146F6DF0C
:1000F400E4800B010204081020408090023EE47E5C
:10010400019360BCA3FF543F30E509541FFEE49300
:10011400A360010ECF54C025E060A840B8E493A3C7
:10012400FAE493A3F8E493A3C8C582C8CAC583CAF2
:10013400F0A3C8C582C8CAC583CADFE9DEE780BEAA
:0102540000A9
:00000001FF
