:10045100E4FFFEC2B3FDEDC3941074809480501B81
:10046100EF25E0FFEE33FE30B403430701D2B200C3
:0D047100000000C2B20000000D80DBD2B31D
:01047E00225B
:0704FC00C2B2D2B3D2B42258
:10047F00120451EF7803CEC313CE13D8F9FFFDAC9E
:0F048F0006E41201AEE4FBFA7980783E02000326
:0C04DB00120451EF30E2037F01227F0089
:0104E70022F2
:10049E003F065B4F666D7D077F6F777C395E7971A6
:0E04AE0000007F177E997DF5DDFEDEFCDFFA93
:0104BC00221D
:10031A001204DBEF60119004ACE493F50CE4F50DE4
:10032A00F50EF50F0203D212047F8F0B8E0A8D0988
:10033A008C08E4FBFA79C8784212010C1201E77CB6
:10034A00007D0A120281749E2DF58274043CF583A5
:10035A00E493F50CE4FBFA79207841AF0BAE0AADD1
:10036A0009AC0812010C1201E77C007D0A12028115
:10037A00749E2DF58274043CF583E493F50DAF0B5E
:10038A00AE0AAD09AC081201E77C007D0A120281AF
:10039A00749E2DF58274043CF583E493F50EE4FF14
:1003AA00FE7D207C41AB0BAA0AA909A8081200030A
:1003BA001201E77C007D0A120281749E2DF5827477
:1003CA00043CF583E493F50F7B007A00790C120361
:0403DA00DE0204AE8D
:0804F4001204FC12031A80FB44
:0605030000007F0CDFFE8A
:0105090022CF
:0F04BD00D2B6D2B7120503C2B6120503C2B722D8
:0F04CC00C2B7C2B6120503D2B7120503D2B622C9
:02041C00AE0729
:10041E00E4FDEDC39408748094805018C2B7EE309A
:10042E00E004D2B68002C2B6EEC313FED2B71205F6
:10043E00030D80DEC2B7D2B6120503D2B712050382
:02044E00C2B733
:010450002289
:1003DE001204BD7F4012041C1204CC1204BD7FC057
:1003EE0012041CE4FCECC39404748094805011122B
:1003FE000268FF12041C740129F9E43AFA0C80E534
:0E040E001204CC1204BD7F8812041C0204CC20
:10000300EC4D6011E8497017ED33EC3304600DE4F7
:10001300FCFFFEFD22E933E8330470F802025312B9
:10002300021E58046009E4CC2481500628500902BA
:10003300025D28400302025AC0E0EB4A7044B980D3
:1000430006D0E0FB020249EF4E701CBD8008EBFFB7
:10005300EAFEE9FD80EBE98DF0A4FEE5F00200EC99
:10006300E9CDF9EAFEEBFFEF89F0A4FCE5F0CE89D8
:10007300F0A42EFFE435F0CD89F0A42DFEE435F095
:100083008067EF4E7005BD80D780C3EF8BF0A4ACC3
:10009300F0EE8BF0A42CFCE435F0F8EF8AF0A42CFE
:1000A300E5F038FCE433CB8DF0A42CFCE5F03BF811
:1000B300EE8AF0A42CFCE5F038F8E433CF89F0A401
:1000C3002CFCE5F038CF3400CE89F0A42FFFE5F007
:1000D3003EFEE433C98DF0A42EFEE5F039CD8AF05F
:1000E300A42FFFE5F03EFEE43DFD33D0E0FB5007D7
:1000F3000BBB000F02025DEC2CFCEF33FFEE33FE73
:06010300ED33FD020235A0
:1001090002025DEC5D046005E859047003020253C4
:1001190012021E580460F6EC4860F2EC7004FDFE11
:10012900FF22C860DB2481C85009C39860025006C9
:1001390002025A9850CAF582E9294B4A7005AB82E6
:1001490002024975F0007C1A7880C3EF9BEE9AEDA4
:1001590099400DC3EF9BFFEE9AFEED99FDE842F041
:10016900DC23ACF0D0E0FFD0E0FED0E0FDAB822094
:10017900E7101BEB60BAEC2CFCEF33FFEE33FEED1E
:1001890033FD020235E803F830E705C0F075F000E9
:10019900EF2FFFEE33FEED33FD40B830E7C280AA02
:1001A90075F020800E75F010800575F0087D007ED1
:1001B900007F003392D530D5031202B7EC334010DB
:1001C900EF33FFEE33FEED33FDEC33FCD5F0ED22DA
:0E01D900E5F0247EA2D513CC92E7CDCEFF2216
:1001E700EDD2E7CD33EC3392D524814006E4FFFE10
:1001F700FDFC22FCE4CFCECDCC24E0501174FF806F
:10020700EDC3CC13CCCD13CDCE13CECF13CF04700B
:07021700F030D5DE0202B752
:10021E00E9D2E7C933E833F892D5EDD2E7CD33EC26
:07022E0033FC5002B2D5229F
:10023500EC30E7100FBF000C0EBE00080DBD00042A
:100245000BEB6014A2D5EB13FCED92E7FD2274FFD6
:10025500FCFDFEFF22E480F8A2D574FF13FC7D802F
:03026500E480EF43
:030000000204E80F
:0C04E800787FE4F6D8FD7581110204F461
:10026800BB010689828A83E0225002E722BBFE0294
:09027800E32289828A83E49322C7
:10028100C2D5EC30E709B2D5E4C39DFDE49CFCEE98
:1002910030E715B2D5E4C39FFFE49EFE1202C5C349
:1002A100E49DFDE49CFC80031202C530D507C3E444
:0602B1009FFFE49EFE2207
:0E02B700C3E49FFFE49EFEE49DFDE49CFC2258
:1002C500BC000BBE0029EF8DF084FFADF022E4CC1D
:1002D500F875F008EF2FFFEE33FEEC33FCEE9DECE6
:1002E500984005FCEE9DFE0FD5F0E9E4CEFD22ED2C
:1002F500F8F5F0EE8420D21CFEADF075F008EF2F76
:10030500FFED33FD4007985006D5F0F222C398FD66
:050315000FD5F0EA2203
:00000001FF
