:10000E00F921F9E0FA8BFAD7FB68FBE8FC5BFC8E72
:10001E00FCEEFD44FD6BFDB4FDF4FE2DFE47FE77B8
:10002E00FEA2FEB6FEDAFEFAFF150000090B0B0C5F
:10003E000B09070708090908070815090B0B0C0B14
:10004E00090707080909080807150A0A0A0C0B0B05
:10005E00090815090B0B0C0B0907070809090808F5
:10006E00071504040602040404020204040404082E
:10007E00080404060204040402020404040408082A
:10008E000A0A04060A040408080404060204040406
:08009E00020204040404080836
:10013900D3EF9400EE94004015E4FCFD0DBD0001E1
:0E0149000CED647D4C70F5EF1F70E51E80E23A
:010157002285
:03000B000201648B
:0901640085088C85098AB2B632C7
:1000A60075890175A88230B503020134E4FBEBC300
:1000B6009436748094805076EB90003B93FFEB90DF
:1000C600003A93FE6F7035D28CEE25E0240EF58251
:1000D600E43400F583E493FC740193FDECF508AF7A
:1000E600058F09EB9000709375F050A4FFAEF012E7
:1000F6000139D2B6C28C7F0F7E00802CD28CEB9059
:10010600003A9325E0240EF582E43400F583E49367
:10011600FC740193FDECF508AF058F09EB900070B8
:100126009375F050A4FFAEF01201390B8080C28C9B
:030136000200AC18
:03000000020158A2
:0C015800787FE4F6D8FD7581090200A64E
:00000001FF
