:10000300020E0000020B0000010900010D00010AAD
:08001300000210000001086466
:0E01D500EF1FAC0670011E4C60030080F32289
:0F01B7007592FD7593FD43C31243E802D2AF2248
:0A003000759E01759D04E4F59C2205
:0F01C600AF9CC3EF94FF748094805002059C227D
:0701E300E59C6002159C225F
:10014300EFFD7C006401703AE50DFB7A00700F75DA
:100153000D01E50A6004E4F50A22750A0122EB6445
:10016300014A704FC3E51194C8E510940050090586
:1001730011E511703E051022E50A60030201C60273
:1001830001E3ED4C7026C3E51194C8E510940050CB
:100193001BE5119400E51094004011E59C6008856F
:1001A3009C08E4F59C800585089C8000E4F50DF52A
:0401B30010F5112210
:10001C001201B7120030AF091201437FB87E0B12E8
:04002C0001D580F288
:03003B000200CAF6
:1000CA00C0E0C0D075D000C006C007AFC4750B0031
:1000DA008F0CE5C554EFFEEE420BE50F450E70029C
:1000EA008045C3E50C950FE50B950E4018E50C9578
:1000FA000FFFE50B950EFED3EF94D0EE9407402741
:10010A007509008022C3E50C950FE50B950E501773
:10011A00C3E50F950CFFE50E950BFED3EF94D0EED9
:10012A0094074003750901850B0E850C0F43C31212
:09013A00D007D006D0D0D0E0328D
:0300000002003EBD
:0C003E00787FE4F6D8FD75811102008582
:10004A0002001CE493A3F8E493A34003F68001F2B0
:10005A0008DFF48029E493A3F85407240CC8C333B7
:10006A00C4540F4420C8834004F456800146F6DF86
:10007A00E4800B0102040810204080900003E47E13
:10008A00019360BCA3FF543F30E509541FFEE4937B
:10009A00A360010ECF54C025E060A840B8E493A342
:1000AA00FAE493A3F8E493A3C8C582C8CAC583CA6D
:1000BA00F0A3C8C582C8CAC583CADFE9DEE780BE25
:01001B0000E4
:00000001FF
