:1001650011083F065B4F666D7D077F6F777C395EB3
:030175007971009D
:10008F00E4F519F51AF51BF51CF51DF51E74082579
:10009F001CF8E6F4F580051AE51A70020519B4D0BC
:1000AF000AE519B40705E4F519F51AAE19AF1A7C6C
:1000BF00027D58120110ED4C7012051CE51C7002E8
:1000CF00051B6411451B7004F51BF51CC3E51C943F
:1000DF000AE51B94004008751D00751E018005E49C
:1000EF00F51DF51EE51E451D6010C2907F0512011E
:1000FF0079D2907F0512017980937F0A120179805E
:01010F008C63
:0A017900AE071FEE60030080F722BE
:03000000020003F8
:0C000300787FE4F6D8FD75811E02004AEB
:10011000BC000BBE0029EF8DF084FFADF022E4CCD3
:10012000F875F008EF2FFFEE33FEEC33FCEE9DEC9C
:10013000984005FCEE9DFE0FD5F0E9E4CEFD22EDE2
:10014000F8F5F0EE8420D21CFEADF075F008EF2F2C
:10015000FFED33FD4007985006D5F0F222C398FD1D
:050160000FD5F0EA22BA
:10000F0002008FE493A3F8E493A34003F68001F278
:10001F0008DFF48029E493A3F85407240CC8C333F2
:10002F00C4540F4420C8834004F456800146F6DFC1
:10003F00E4800B0102040810204080900165E47EEB
:10004F00019360BCA3FF543F30E509541FFEE493B6
:10005F00A360010ECF54C025E060A840B8E493A37D
:10006F00FAE493A3F8E493A3C8C582C8CAC583CAA8
:10007F00F0A3C8C582C8CAC583CADFE9DEE780BE60
:010178000086
:00000001FF
