:100A01003F065B4F666D7D077F6F777C395E79713D
:1009F00008080000000000000000041000000000D3
:030A1100120A14B2
:050A1400007F2FDFFE52
:010A190022BA
:10093700E4FEEEB40800504D900946F828287302EB
:10094700095E02096202096602096A02096E020962
:100957007602097E020986C290800EC2908012C27A
:10096700908016C290801AD290C291C2928016D2FD
:1009770090C291D292800ED290D291C2928006D22A
:1009870090D291D292C374079E2408F8E6F580129C
:0B0997000A11E4F5800EEE6408709772
:0109A2002232
:1009A300E4FF74102FF8E6FEC4540F900A0193FD80
:1009B300EF25E0FCC374079C2408F8A605EE540F4A
:0F09C30093FDC374069C2408F8A6050FBF04D348
:0109D2002202
:070A1A00D2AFD2A8C288226E
:1009D300120A1A1209371209A3E512B446F5C29393
:0D09E300120A11120A14120A14D29380E6AF
:03000300020800F0
:10080000C0E0C0D075D000C000C004C005C006C0A4
:0108100007E0
:10081100C2AFE4FE20B20CEEC394645006120A1477
:100821000E80F1EED3945A50727E0030B20CEEC3BA
:1008310094375006120A140E80F1EED3942D505BBA
:10084100E4FDE4FC74102DF8C000E6FFC313D000F2
:10085100F67E0020B20CEEC394075006120A140E65
:1008610080F1EE60367E0030B20CEEC39412500679
:10087100120A140E80F1EE6022EED3940A74104035
:10088100082DF8E64480F680062DF8E6547FF60C34
:0B089100BC08B10DED640470A9D2AFEB
:0F089C00D007D006D005D004D000D0D0D0E032A5
:030000000208AB48
:0C08AB00787FE4F6D8FD7581130208F296
:1008B7000209D3E493A3F8E493A34003F68001F27B
:1008C70008DFF48029E493A3F85407240CC8C33342
:1008D700C4540F4420C8834004F456800146F6DF11
:1008E700E4800B01020408102040809009F0E47EA8
:1008F700019360BCA3FF543F30E509541FFEE49306
:10090700A360010ECF54C025E060A840B8E493A3CC
:10091700FAE493A3F8E493A3C8C582C8CAC583CAF7
:10092700F0A3C8C582C8CAC583CADFE9DEE780BEAF
:010A000000F5
:00000001FF
