:100A79003F065B4F666D7D077F6F777C395E7971C5
:100A43000808003F3F403FBF3F3F0114000115012D
:030A53000111008E
:040A57007F327E006C
:0E0A5B00EF1FAC0670011E4C60030080F322FA
:100A6900758910D2AFD2ABD28E758DD8758BF02225
:1009260020A017120A5720A011E511700DE51464D6
:10093600017004F514800375140120A117120A57DB
:1009460020A111E511700DE51564017004F51580FF
:100956000375150120A215120A5720A20FE5117082
:100966000BF514F512F513F51075150130A00630C8
:0D097600A10320A20475110122E4F5112255
:10080000AE12AF137C007D0A12098374792DF58234
:10081000740A3CF583E493F50FAE12AF137C007DB0
:100820000A1209837C007D0A12098374792DF582EE
:10083000740A3CF583E493F50EAE12AF137C007D91
:10084000641209837C007D0A12098374792DF58274
:10085000740A3CF583E493F50DAE12AF137C037D6F
:10086000E81209837C007D0A12098374792DF582D0
:10087000740A3CF583E493F50C430D80E51075F0A4
:100880000A84E5F0900A7993F50AE51075F00A8478
:0A08900075F00A84E5F093F50922E3
:100A0300E4FDEDC3940874809480501A5390F8ED7C
:100A1300429074082DF8E6F5807F147E00120A5B7D
:060A2300E4F5800D80DC0B
:010A290022AA
:100A2A00E4F512F513F510120A69120926E51560A4
:090A3A0003120800120A0380F106
:03001B000209D8FF
:1009D800C0E0C0D0758DD8758BF0E514601805138C
:1009E800E51370020512B4700DE512B417087512FC
:0B09F800007513000510D0D0D0E032D5
:0300000002089A59
:0C089A00787FE4F6D8FD7581150208E1B6
:10098300BC000BBE0029EF8DF084FFADF022E4CC58
:10099300F875F008EF2FFFEE33FEEC33FCEE9DEC21
:1009A300984005FCEE9DFE0FD5F0E9E4CEFD22ED67
:1009B300F8F5F0EE8420D21CFEADF075F008EF2FB1
:1009C300FFED33FD4007985006D5F0F222C398FDA2
:0509D3000FD5F0EA223F
:1008A600020A2AE493A3F8E493A34003F68001F234
:1008B60008DFF48029E493A3F85407240CC8C33353
:1008C600C4540F4420C8834004F456800146F6DF22
:1008D600E4800B0102040810204080900A43E47E65
:1008E600019360BCA3FF543F30E509541FFEE49317
:1008F600A360010ECF54C025E060A840B8E493A3DE
:10090600FAE493A3F8E493A3C8C582C8CAC583CA08
:10091600F0A3C8C582C8CAC583CADFE9DEE780BEC0
:010A5600009F
:00000001FF
