:050B8C00007F96DFFE72
:010B91002241
:100B4500C2A5C2A68F8000D2A7120B8CC2A7002215
:100B5500C2A5D2A68F8000D2A7120B8CC2A70022F5
:100B1700C2A77F38120B457F0C120B457F06120BBD
:090B2700457F01120B45020B830E
:080B83007F047EE1DEFEDFFCD1
:010B8B002247
:1009E800C29100D290E4FDEDC394087480948050C5
:1009F80018EFC4333333548024FF9292EFC313FFAC
:100A0800D29100C291000D80DEE4FDEDC39408741C
:100A18008094805019EEC313FEA292E433C433339A
:100A28003354804206D29100C291000D80DDC290FD
:060A3800D291D292AF063C
:010A3E002295
:100A3F00C29100D290E4FEEEC3940874809480506B
:100A4F0018EFC4333333548024FF9292EFC313FF54
:100A5F00D29100C291000E80DEE4FEEEC3940874C2
:100A6F008094805018EDC4333333548024FF929216
:100A7F00EDC313FDD29100C291000E80DEC290D261
:030A8F0091D2926F
:010A92002241
:010B92002240
:10098100203012081F0E0C1F0404000F090F090F5D
:100991000913000F09090F09090F000E0E0E140E9D
:1009A100041F000B1F0B0B1F1503001F04041F0462
:1009B1000A11001043323032300020303101303121
:1009C1000220202020105331323A30303A3030208A
:1009D100030431202020200A0830313233343536E7
:0609E10037383901420025
:0E0B7500EF1FAC0670011E4C60030080F322DF
:0F0B6500E4FFEFC394077480948050030F80F374
:010B7400225E
:100800007F8D1209E8EFC4540FFEEF540FFD7408FA
:100810002EF8E6F54574082DF8E6F5467F891209AD
:10082000E8EFC4540FFEEF540FFD74082EF8E6F500
:100830004974082DF8E6F54A7F871209E8EFC45499
:100840000FFEEF540FFD74082EF8E6F54C74082DDA
:10085000F8E6F54D7F851209E8EFC4540FFEEF541A
:100860000FFD74082EF8E6F55374082DF8E6F554DC
:100870007F831209E8EFC4540FFEEF540FFD740894
:100880002EF8E6F55674082DF8E6F5577F81120923
:10089000E8EFC4540FFEEF540FFD74082EF8E6F590
:1008A00059AF0574082FF8E6F55A7F8B1209E8EF67
:1008B00014B40700503E9008C475F003A4C5832506
:1008C000F0C583730208D90208DD0208E10208E5D9
:1008D0000208E90208ED0208F1755E3122755E3208
:1008E00022755E3322755E3422755E3522755E3662
:0408F00022755E050A
:0108F40022E1
:100A93007F80120B45E4F56DC3E56D94107480946B
:100AA30080500E7443256DF8E6FF120B55056D80DB
:100AB300E77FC0120B45E4F56DC3E56D94107480B8
:100AC3009480500E7453256DF8E6FF120B55056D97
:020AD30080E7BA
:010AD50022FE
:100AD600E4F56DC3E56D9406748094805032E56D3F
:100AE60075F008A42440FF120B45E4F56EC3E56ECD
:100AF6009408748094805014E56D75F008A424124F
:100B0600256EF8E6FF120B55056E80E1056D80C374
:010B160022BC
:100B3000120B17120AD6120A931208007F107E2792
:050B4000120B7580F1AD
:030000000208F5FE
:0C08F500787FE4F6D8FD75816E02093CA6
:10090100020B30E493A3F8E493A34003F68001F2D1
:1009110008DFF48029E493A3F85407240CC8C333F7
:10092100C4540F4420C8834004F456800146F6DFC6
:10093100E4800B0102040810204080900981E47ECC
:10094100019360BCA3FF543F30E509541FFEE493BB
:10095100A360010ECF54C025E060A840B8E493A382
:10096100FAE493A3F8E493A3C8C582C8CAC583CAAD
:10097100F0A3C8C582C8CAC583CADFE9DEE780BE65
:0109E700000F
:00000001FF
