:10075100FF0FFFFFFF00000000000000000000008D
:040761000000000094
:1006BE007F607EEA1206DE7F607EEA1206DE7F60D3
:1006CE007EEA1206DE7F607EEA1206DE7F607EEA3A
:0B06DE00EF1FAC0670011E4C70F622EE
:10061600E4F50BF50AF509F508759603F595C2A0FC
:10062600D2A17F107E271206DE1204F81206917BF5
:10063600017D067F361205707FFF1207777F011254
:1006460007771206BE7F0A1207771206BE74FFF5F9
:090656000BF50AF509F50880E432
:1003B80000E010080810E000000F102020100F00C7
:1003C80000001010F8000000000020203F2020004E
:1003D800007008080808F0000030282422213000A6
:1003E80000300808088870000018202121221C000D
:1003F8000000804030F8000000060524243F242433
:1004080000F88888880808000019202020110E00AC
:1004180000E0108888900000000F112020201F00A5
:1004280000180808886818000000003E0100000055
:100438000070880808887000001C222121221C00F6
:1004480000F008080810E0000001122222110F0035
:1004580000ECAAA9A8AAEC00DF2424A2A238000074
:10046800806F020222CA0F0027C9090828CE00009F
:100478000002027A4A4A4A4A7A02027E02020000CE
:100488000101013D252525253D41817F010101000F
:100498000002027A4A4A4A4A7A02027E02020000AE
:1004A8000101013D252525253D41817F01010100EF
:1004B8000838C800C83808000000203F20000000A5
:1004C8000838C800C83808000000203F2000000095
:1004D80008F808080810E000203F202020100F002E
:1004E80000708808080838000038202121221C00E4
:07078F00D2A3D2A2C2A322F3
:07079600C2A3D2A2D2A322EC
:0505C60012078F7F7891
:1005CB008F20C2A2A20792A3D2A2C2A2A20692A37A
:1005DB00D2A2C2A2A20592A3D2A2C2A2A20492A3A9
:1005EB00D2A2C2A2A20392A3D2A2C2A2A20292A39D
:1005FB00D2A2C2A2A20192A3D2A2C2A2A20092A391
:0B060B00D2A2C2A2D2A3D2A2C2A2229D
:10076500AE071205C6E4FF1205CBAF061205CB0294
:020775000796E5
:0F065F007F061207267A0479B87BFF7D087C009E
:10066E001205C67F401205CBED1DAE0470011C4E67
:10067E00601012070DFF1205CB740129F9E43AFA46
:03068E0080E622E1
:1004F8007FA81207657F3F1207657FD3120765E45F
:10050800FF1207657F401207657FA11207657FC844
:100518001207657FDA1207657F121207657F81125D
:1005280007657F7F1207657FA41207657FA61207FC
:10053800657FD5120765E4FF1207657F8D12076591
:100548007F141207657FAF1207657FD91207657F91
:10055800221207657F811207657FFF1207657F20DA
:08056800120765E4FF020765BC
:10073C00AC077F22120765EC5407FF120765ED54D6
:05074C0007FF02076534
:0F06E900FDFF12073CE50D75F008A4FF2407FD87
:1006F800AC077F21120765EC547FFF120765ED54A4
:050708007FFF02076500
:100691007B007A047D07E4FF12073C7D7FE4FF12B3
:1006A10006F81205C67F40800CEB1BAE0270011AE2
:0D06B1004E6007E4FF1205CB80EF020796B4
:10072600AE05AB07AF067D0712073CEB75F008A4D4
:06073600FF7D7F0206F8C2
:100570008F0C8D0D8B0EE50E25E0FDAF0D120726BD
:10058000E50CC39430403EE50CD39439503774D019
:10059000250CF50CE50E25E01206E9E50C75F010CA
:1005A000A424B8F9740335F0FA120668E50E25E0C4
:1005B000041206E9E50C75F010A424C0F9740335A3
:0605C000F0FA12066A22A7
:0C077700AD077F81120765AF0502076522
:10000300E4FDFF1207267BFF7A0479587D107C00FC
:1000130012066E7D01E4FF1207267BFF7A047968DE
:100023007D107C0012066E7D02E4FF1207267BFF23
:100033007A0479587D107C0012066E7D03E4FF126A
:1000430007267BFF7A0479687D107C0012066E7D9B
:1000530004E4FF1207267BFF7A0479587D107C00A5
:1000630012066E7D05E4FF1207267BFF7A0479688A
:100073007D107C0012066E7D06E4FF1207267BFFCF
:100083007A0479587D107C0012066E7D07E4FF1216
:1000930007267BFF7A0479687D107C0012066EE4E4
:1000A300FD7F021207267BFF7A0479787D107C009E
:1000B30012066E7D017F021207267BFF7A04798880
:1000C3007D107C0012066E7D027F021207267BFFE5
:1000D3007A0479787D107C0012066E7D037F02120C
:1000E30007267BFF7A0479887D107C0012066E7DDB
:1000F300047F021207267BFF7A0479787D107C0047
:1001030012066E7D057F021207267BFF7A0479882B
:100113007D107C0012066E7D067F021207267BFF90
:100123007A0479787D107C0012066E7D077F0212B7
:1001330007267BFF7A0479887D107C0012066EE423
:10014300FD7F041207267BFF7A0479987D107C00DB
:1001530012066E7D017F041207267BFF7A0479A8BD
:100163007D107C0012066E7D027F041207267BFF42
:100173007A0479987D107C0012066E7D037F041249
:1001830007267BFF7A0479A87D107C0012066E7D1A
:10019300047F041207267BFF7A0479987D107C0084
:1001A30012066E7D057F041207267BFF7A0479A869
:1001B3007D107C0012066E7D067F041207267BFFEE
:1001C3007A0479987D107C0012066E7D077F0412F5
:1001D30007267BFF7A0479A87D107C0012066EE463
:1001E300FD12065F7D017F061207267A0479C0128D
:1001F30006687D0212065F7D037F061207267BFFDA
:100203007A0479C012066A7D0412065F7D057F06B3
:100213001207267BFF7A0479C012066A7D0612064E
:100223005F7D077F061207267BFF7A0479C01206DB
:100233006AE4FD7F071207267BFF7A0479C812065A
:100243006A7D017F071207267BFF7A0479D01206A5
:100253006A7D027F071207267BFF7A0479C812069C
:100263006A7D037F071207267BFF7A0479D0120683
:100273006A7D047F071207267BFF7A0479C812067A
:100283006A7D057F071207267BFF7A0479D0120661
:100293006A7D067F071207267BFF7A0479C8120658
:1002A3006A7D077F071207267BFF7A0479D012063F
:1002B3006AE4FD7F081207267BFF7A0479D81206C9
:1002C3006A7D017F081207267BFF7A0479E0120614
:1002D3006A7D027F081207267BFF7A0479D812060B
:1002E3006A7D037F081207267BFF7A0479E01206F2
:1002F3006A7D047F081207267BFF7A0479D81206E9
:100303006A7D057F081207267BFF7A0479E01206CF
:100313006A7D067F081207267BFF7A0479D81206C6
:100323006A7D077F081207267BFF7A0479E01206AD
:100333006AE4FD7F091207267BFF7A0479E8120637
:100343006A7D017F091207267BFF7A0479F0120682
:100353006A7D027F091207267BFF7A0479E8120679
:100363006A7D037F091207267BFF7A0479F0120660
:100373006A7D047F091207267BFF7A0479E8120657
:100383006A7D057F091207267BFF7A0479F012063E
:100393006A7D067F091207267BFF7A0479E8120635
:1003A3006A7D077F091207267BFF7A0479F07D08AF
:0503B3007C0002066E53
:0300000002078371
:0C078300787FE4F6D8FD75812002061690
:10070D00BB010689828A83E0225002E722BBFE02EA
:09071D00E32289828A83E493221D
:00000001FF
