:0B009100EF1FAC0670011E4C70F62241
:10000300E4F97B3F09E9F4700CF9EB643F70047B7E
:100013000680027B3FE4FDEDC39408748094805016
:10002300E3EDB40800504E900031F8282873020025
:100033004902004D02005102005502005902005FBF
:1000430002006502006FC290800EC2908010C290C1
:100053008012C2908018D290C291800AD290C2912D
:10006300800ED290D291C2928B808009D290D2918D
:10007300D292E4F5807F647E00120091E4F5800D56
:02008300809566
:0300000002008576
:0C008500787FE4F6D8FD758107020003C7
:00000001FF
