:1009BD0001090001080010123F065B4F666D7D07AF
:1009CD007F6F777C395E7971080A5B3F5B0640402B
:0209DD00888010
:10097700120905EFC3940C7480948040027FFFEF47
:10098700F460277509640FEF75F00A8475F00A841F
:10099700741225F0F8E6F510EF75F00A8474122545
:1009A700F0F8E6F51112088C8003E4F5807F647E89
:0609B700001209E080BA05
:10088C00E4F522C3E522940874809480506AE52232
:10089C00B40800504D9008A8F82828730208C0022C
:1008AC0008C40208C80208CC0208D00208D8020802
:1008BC00E00208E8C290800EC2908012C2908016AE
:1008CC00C290801AD290C291C2928016D290C291DC
:1008DC00D292800ED290D291C2928006D290D291B6
:1008EC00D292740A2522F8E6F5807F647E00120904
:0808FC00E0E4F5800522808B89
:0109040022D0
:100905007522FF75A00FAFA0EF640F60627FC87EF0
:10091500001209E0AFA0EF640F6054AFA0EF24F917
:10092500601A24FC601124FE6008147014752203FB
:100935008012752202800D7522018008E4F522805F
:10094500037522FF75A0F0AFA0EF2490601C24C0B2
:10095500601024E0600824F07012740C800674089E
:10096500800274042522F522800580037522FFAFDD
:01097500225F
:01097600225E
:0E09E000EF1FAC0670011E4C60030080F32276
:03000000020800F3
:0C080000787FE4F6D8FD758122020847DD
:10080C00020977E493A3F8E493A34003F68001F282
:10081C0008DFF48029E493A3F85407240CC8C333ED
:10082C00C4540F4420C8834004F456800146F6DFBC
:10083C00E4800B01020408102040809009BDE47E86
:10084C00019360BCA3FF543F30E509541FFEE493B1
:10085C00A360010ECF54C025E060A840B8E493A378
:10086C00FAE493A3F8E493A3C8C582C8CAC583CAA3
:10087C00F0A3C8C582C8CAC583CADFE9DEE780BE5B
:0109DF000017
:00000001FF
