:10029F003F065B4F666D7D077F6F777C395E7971A7
:10027D0008083F3F4000004000000112000210003E
:01028D000070
:05000300007F32DFFE6A
:0100080022D5
:10028F00758901758C3C758AB0D28CD2AFD2A922F8
:10000E00AE10AF117C0E7D101201EA7C007D18122D
:10001E0001EAAA04AB057D0A7C00AF03AE02120111
:10002E00EA7C007D0A1201EA749F2DF58274023C6F
:10003E00F583E493F50B7D0A7C00AF03AE0212014B
:10004E00EA749F2DF58274023CF583E493F50CAEB1
:10005E0010AF117C007D3C1201EA7C007D3C120148
:10006E00EAAA04AB057D0A7C00AF03AE021201EAD8
:10007E007C007D0A1201EA749F2DF58274023CF514
:10008E0083E493F50B7D0A7C00AF03AE021201EA06
:10009E00749F2DF58274023CF583E493F50CAE103B
:1000AE00AF117C007D3C1201EAAA04AB057D0A7CEF
:1000BE0000AF03AE021201EA7C007D0A1201EA745F
:1000CE009F2DF58274023CF583E493F50E7D0A7C38
:1000DE0000AF03AE021201EA749F2DF58274023C4A
:0700EE00F583E493F50F22F6
:10018100E4FEEEB40800504D900190F82828730267
:1001910001A80201AC0201B40201B80201C00201CE
:1001A100C40201CC0201D0C2A08002D2A0C2A1C26D
:1001B100A28022C2A08002D2A0D2A1C2A28016C275
:1001C100A08002D2A0C2A1D2A2800AC2A08002D283
:1001D100A0D2A1D2A274082EF8E6F580120003E4A1
:0801E100F5800EEE6408709A2F
:0101E90022F3
:10026200C3E511943CE5109400400DE5119446E578
:0B0272001094005003B2A322D2A3227C
:0E02AF0012028F12000E12018112026280F5FF
:03000B0002023FAF
:10023F00C0E0C0D0758C3C758AB00512E512C3942E
:10024F0014400B7512000511E51170020510D0D086
:03025F00D0E032BA
:030000000200F506
:0C00F500787FE4F6D8FD75811202013C12
:1001EA00BC000BBE0029EF8DF084FFADF022E4CCF9
:1001FA00F875F008EF2FFFEE33FEEC33FCEE9DECC2
:10020A00984005FCEE9DFE0FD5F0E9E4CEFD22ED07
:10021A00F8F5F0EE8420D21CFEADF075F008EF2F51
:10022A00FFED33FD4007985006D5F0F222C398FD42
:05023A000FD5F0EA22DF
:100101000202AFE493A3F8E493A34003F68001F263
:1001110008DFF48029E493A3F85407240CC8C333FF
:10012100C4540F4420C8834004F456800146F6DFCE
:10013100E4800B010204081020408090027DE47EDF
:10014100019360BCA3FF543F30E509541FFEE493C3
:10015100A360010ECF54C025E060A840B8E493A38A
:10016100FAE493A3F8E493A3C8C582C8CAC583CAB5
:10017100F0A3C8C582C8CAC583CADFE9DEE780BE6D
:01028E00006F
:00000001FF
