:10098E008F0A8D0B1209B07F781208CD120906AFAF
:10099E000A1208CD120906AF0B1208CD1209060273
:0209AE0009C17D
:02093A008F0C20
:10093C001209B07F781208CD120906AF0C1208CD3F
:10094C001209061209B07FA11208CD12090612086D
:0D095C00928F0D7F0112096A1209C1AF0DC3
:01096900226B
:0E09D200EF1FAC0670011E4C60030080F32284
:0C09E000D2A8D2AAD2AFD288D28A80FE60
:03000300020800F0
:10080000C0E0C0F0C083C082C0D075D000C000C0BE
:1008100001C002C003C004C005C006C0077F647EDB
:10082000001209D220B2077D317F3212098ED00723
:10083000D006D005D004D003D002D001D000D0D053
:09084000D082D083D0F0D0E03268
:0300130002084997
:10084900C0E0C0F0C083C082C0D075D000C000C075
:1008590001C002C003C004C005C006C0077F647E92
:10086900001209D220B3077D527F5112098ED00799
:10087900D006D005D004D003D002D001D000D0D00A
:09088900D082D083D0F0D0E0321F
:1009B000D2A0D2A10000000000C2A00000000000F0
:0109C0002214
:1009C100C2A0D2A10000000000D2A00000000000DF
:0109D1002203
:1008CD00C2A10000000000E4FEEEC3940874809401
:1008DD00805025EFC4131313540124FF92A0EF256C
:1008ED00E0FF0000000000D2A10000000000C2A146
:0808FD0000000000000E80D194
:0109050022CF
:10096A00EF6004D2A08002C2A00000000000D2A161
:10097A000000000000C2A10000000000D2A0000098
:04098A000000002247
:10089200C2A100000000000000000000D2A0E4FE9F
:1008A200EEC39408748094805020EF25E0FFD2A11B
:1008B2000000000000A2A0E4334207000000000094
:0A08C200C2A100000000000E80D665
:0108CC002209
:100906007FFAD2A000000000000000000000D2A183
:10091600000000000000800930A00CAE071FEE604A
:10092600060000000080F1EF7002C290C2A1000034
:03093600000000BE
:01093900229B
:030000000209EC06
:0C09EC00787FE4F6D8FD75810D0209E06B
:00000001FF
