:0600030001090A010800DA
:1001BD00758902758C9C758A9CD2AFD2A9D28C227E
:1001A4008F0F8E0E8D0D8C0C780C74FF120186EC63
:0901B4004D4E4F60030080F02263
:10009A00E4FFA28033650A6075308034308107E559
:1000AA000B70030F805C20810AE50B640170047FEA
:1000BA00FF804FA281E433B50B073081047FFF80B4
:1000CA0041A281E433650B70392081367F01803289
:1000DA00308108E50B70047FFF802720810AE50B39
:1000EA00640170047F01801AA281E433B50B0730E2
:1000FA0081047F01800CA281E433B50B05208102C3
:0E010A007FFFA280E433F50AA281E433F50BF7
:0101180022C4
:100119001201BDA280E433F50AA281E433F50B7F15
:100129000A7E007D007C001201A412009AEF14607F
:1001390013240270EAD3E50994057480948040DFA2
:10014900150980DBC3E50994197480948050D005A2
:030159000980CC4E
:03000B0002015C93
:04015C00C0E0C0D06F
:10016000C3E50894197480948050040508800375D1
:0F0170000800E508C395095004D2908002C290A0
:05017F00D0D0D0E032F9
:0300000002000EED
:0C000E00787FE4F6D8FD75810F020055E4
:100184007401FF3395E0FEFDFC080808E6CF2FF666
:1001940018E6CE3EF618E6CD3DF618E6CC3CF6223F
:10001A00020119E493A3F8E493A34003F68001F2E2
:10002A0008DFF48029E493A3F85407240CC8C333E7
:10003A00C4540F4420C8834004F456800146F6DFB6
:10004A00E4800B0102040810204080900003E47E43
:10005A00019360BCA3FF543F30E509541FFEE493AB
:10006A00A360010ECF54C025E060A840B8E493A372
:10007A00FAE493A3F8E493A3C8C582C8CAC583CA9D
:10008A00F0A3C8C582C8CAC583CADFE9DEE780BE55
:0100090000F6
:00000001FF
