:100BAF003F065B4F666D7D077F6F777C395E79718E
:100B8E00080A000000000000000001080001090032
:0E0BBF00EF1FAC0670011E4C60030080F32295
:100A4B00E4FDEDC3940874809480506AEDB4080003
:100A5B00504D900A64F8282873020A7C020A80021F
:100A6B000A84020A88020A8C020A94020A9C020A6D
:100A7B00A4C290800EC2908012C2908016C2908049
:100A8B001AD290C291C2928016D290C291D2928009
:100A9B000ED290D291C2928006D290D291D292C3B2
:100AAB0074079D240AF8E6F5807F647E00120BBF65
:060ABB00E4F5800D808CC3
:010AC1002212
:100B9F00758901758CFF758A9CD2AFD2A9D28C2230
:10091D007F94120AC2E48F158E14F513F5127B0A1B
:10092D00FAF9F8AD13AC1212088B74AF2BF5827473
:10093D000B3AF583E493F50AE47B0AFAF9F8AF155F
:10094D00AE14AD13AC1212088BE47B0AFAF9F8124F
:10095D00088B74AF2BF582740B3AF583E493F50B8A
:10096D00E47B64FAF9F8AF15AE14AD13AC121208AE
:10097D008BE47B0AFAF9F812088B74AF2BF58274AD
:10098D000B3AF583E493F50CE47BE87A03F9F8AFC1
:10099D0015AE14AD13AC1212088BE47B0AFAF9F8FC
:1009AD0012088B74AF2BF582740B3AF583E493F533
:0209BD000D2209
:100B2300120B9F12091DE47F64FEFDFCAB15AA1492
:100B3300A913A812120800E4FB7A20F9F812088B13
:100B4300AB07E4FAEAC394037480948050D5EB6551
:100B530009600CEBC39509500415098002050912BD
:050B63000A4B0A80DFCF
:03000B00020B687D
:100B6800C0E0C0D0758CFF758A9CE508646470028B
:100B7800F508E509D395084004C2A48002D2A4056B
:060B880008D0D0D0E032DD
:020AC200A90782
:100AC400E4FFFEC2A1000000C2A0FDEDC3940874BF
:100AD4008094805019E9C4131313540124FF92A382
:100AE400E925E0F9D2A10000C2A1000D80DD0000DB
:100AF400D2A10000C2A10000E4FDEDC3940C7480F7
:100B040094805018A2A2E4334207EF25E0FFEE33AD
:0E0B1400FED2A10000C2A100000D80DED2A022
:010B220022B0
:030000000209BF33
:0C09BF00787FE4F6D8FD758119020A0665
:10080000E88FF0A4CC8BF0A42CFCE98EF0A42CFC97
:100810008AF0EDA42CFCEA8EF0A4CDA8F08BF0A415
:100820002DCC3825F0FDE98FF0A42CCD35F0FCEB74
:100830008EF0A4FEA9F0EB8FF0A4CFC5F02ECD3939
:0F084000FEE43CFCEAA42DCE35F0FDE43CFC22A6
:10084F0075F008758200EF2FFFEE33FECD33CDCC60
:10085F0033CCC58233C5829BED9AEC99E5829840E3
:10086F000CF582EE9BFEED9AFDEC99FC0FD5F0D6C0
:10087F00E4CEFBE4CDFAE4CCF9A88222B800C1B9EA
:10088F000059BA002DEC8BF084CFCECDFCE5F0CB28
:10089F00F97818EF2FFFEE33FEED33FDEC33FCEB61
:1008AF0033FB10D703994004EB99FB0FD8E5E4F91C
:1008BF00FA227818EF2FFFEE33FEED33FDEC33FC09
:1008CF00C933C910D7059BE99A4007EC9BFCE99AFD
:1008DF00F90FD8E0E4C9FAE4CCFB2275F010EF2F42
:1008EF00FFEE33FEED33FDCC33CCC833C810D70742
:1008FF009BEC9AE899400AED9BFDEC9AFCE899F87D
:0E090F000FD5F0DAE4CDFBE4CCFAE4C8F9220F
:1009CB00020B23E493A3F8E493A34003F68001F214
:1009DB0008DFF48029E493A3F85407240CC8C3332D
:1009EB00C4540F4420C8834004F456800146F6DFFC
:1009FB00E4800B0102040810204080900B8EE47EF3
:100A0B00019360BCA3FF543F30E509541FFEE493F0
:100A1B00A360010ECF54C025E060A840B8E493A3B7
:100A2B00FAE493A3F8E493A3C8C582C8CAC583CAE2
:100A3B00F0A3C8C582C8CAC583CADFE9DEE780BE9A
:010B9E000056
:00000001FF
